{"abi":[{"type":"constructor","inputs":[{"name":"_routerAddress","type":"address","internalType":"address"},{"name":"_managerAddress","type":"address","internalType":"address"},{"name":"_WETH9Address","type":"address","internalType":"address"}],"stateMutability":"nonpayable"},{"type":"fallback","stateMutability":"nonpayable"},{"type":"receive","stateMutability":"payable"},{"type":"function","name":"WETH9","inputs":[],"outputs":[{"name":"","type":"address","internalType":"address"}],"stateMutability":"view"},{"type":"function","name":"approver","inputs":[{"name":"_tokenAddress","type":"address","internalType":"address"},{"name":"_to","type":"address","internalType":"address"},{"name":"value","type":"uint256","internalType":"uint256"}],"outputs":[],"stateMutability":"nonpayable"},{"type":"function","name":"mint","inputs":[{"name":"token","type":"address[]","internalType":"address[]"},{"name":"amount","type":"uint256[]","internalType":"uint256[]"},{"name":"fee","type":"uint24","internalType":"uint24"},{"name":"tickLower","type":"int24","internalType":"int24"},{"name":"tickUpper","type":"int24","internalType":"int24"},{"name":"recipient","type":"address","internalType":"address"},{"name":"deadline","type":"uint256","internalType":"uint256"}],"outputs":[],"stateMutability":"payable"},{"type":"function","name":"multiSwap","inputs":[{"name":"_deadline","type":"uint256","internalType":"uint256"},{"name":"_data","type":"bytes[]","internalType":"bytes[]"}],"outputs":[],"stateMutability":"payable"},{"type":"function","name":"owner","inputs":[],"outputs":[{"name":"","type":"address","internalType":"address"}],"stateMutability":"view"},{"type":"function","name":"positionManager","inputs":[],"outputs":[{"name":"","type":"address","internalType":"contract PositionManager"}],"stateMutability":"view"},{"type":"function","name":"renounceOwnership","inputs":[],"outputs":[],"stateMutability":"nonpayable"},{"type":"function","name":"transferOwnership","inputs":[{"name":"newOwner","type":"address","internalType":"address"}],"outputs":[],"stateMutability":"nonpayable"},{"type":"function","name":"vlsRouter","inputs":[],"outputs":[{"name":"","type":"address","internalType":"contract VLSRouter"}],"stateMutability":"view"},{"type":"function","name":"withdrawEth","inputs":[],"outputs":[],"stateMutability":"payable"},{"type":"function","name":"withdrawToken","inputs":[{"name":"_address","type":"address[]","internalType":"address[]"}],"outputs":[],"stateMutability":"nonpayable"},{"type":"function","name":"zap","inputs":[{"name":"fromToken","type":"address","internalType":"address"},{"name":"token0","type":"address","internalType":"address"},{"name":"token1","type":"address","internalType":"address"},{"name":"fullAmount","type":"uint256","internalType":"uint256"},{"name":"swapAmount","type":"uint256","internalType":"uint256"},{"name":"fee","type":"uint24","internalType":"uint24"},{"name":"tickLower","type":"int24","internalType":"int24"},{"name":"tickUpper","type":"int24","internalType":"int24"},{"name":"recipient","type":"address","internalType":"address"},{"name":"deadline","type":"uint256","internalType":"uint256"},{"name":"swapParams","type":"bytes[]","internalType":"bytes[]"}],"outputs":[],"stateMutability":"payable"},{"type":"event","name":"OwnershipTransferred","inputs":[{"name":"previousOwner","type":"address","indexed":true,"internalType":"address"},{"name":"newOwner","type":"address","indexed":true,"internalType":"address"}],"anonymous":false},{"type":"event","name":"fall","inputs":[{"name":"memo","type":"string","indexed":false,"internalType":"string"}],"anonymous":false},{"type":"event","name":"rcv","inputs":[],"anonymous":false},{"type":"error","name":"OwnableInvalidOwner","inputs":[{"name":"owner","type":"address","internalType":"address"}]},{"type":"error","name":"OwnableUnauthorizedAccount","inputs":[{"name":"account","type":"address","internalType":"address"}]}],"bytecode":{"object":"0x60806040523480156200001157600080fd5b506040516200178338038062001783833981016040819052620000349162000117565b33806200005b57604051631e4fbdf760e01b81526000600482015260240160405180910390fd5b6200006681620000aa565b50600180546001600160a01b039485166001600160a01b03199182161790915560028054938516938216939093179092556003805491909316911617905562000161565b600080546001600160a01b038381166001600160a01b0319831681178455604051919092169283917f8be0079c531659141344cd1fd0a4f28419497f9722a3daafe3b4186f6b6457e09190a35050565b80516001600160a01b03811681146200011257600080fd5b919050565b6000806000606084860312156200012d57600080fd5b6200013884620000fa565b92506200014860208501620000fa565b91506200015860408501620000fa565b90509250925092565b61161280620001716000396000f3fe6080604052600436106100ab5760003560e01c80637ced6d27116100645780637ced6d27146101fe5780638da5cb5b1461021157806395e0cea31461022f578063a0ef91df1461024f578063e5c8a78414610257578063f2fde38b1461026a576100db565b80630eb41692146101385780633bb68892146101745780634aa4a4fc146101895780634b0879fe146101a9578063715018a6146101c9578063791b98bc146101de576100db565b366100db576040517f9cd091259ba119ccaac023fda59703ff96ccda39f3aae269ba8ac3d3cd52ce8f90600090a1005b3480156100e757600080fd5b507fe569a4a28e270788b4a9f8377a411f93e1f85bafb7590d00ec2426393da0843360405161012e9060208082526004908201526319985b1b60e21b604082015260600190565b60405180910390a1005b34801561014457600080fd5b50600154610158906001600160a01b031681565b6040516001600160a01b03909116815260200160405180910390f35b610187610182366004610f1b565b61028a565b005b34801561019557600080fd5b50600354610158906001600160a01b031681565b3480156101b557600080fd5b506101876101c4366004611022565b610597565b3480156101d557600080fd5b5061018761075c565b3480156101ea57600080fd5b50600254610158906001600160a01b031681565b61018761020c3660046110ab565b610770565b34801561021d57600080fd5b506000546001600160a01b0316610158565b34801561023b57600080fd5b5061018761024a3660046110f7565b6107f3565b61018761086e565b610187610265366004611133565b610906565b34801561027657600080fd5b5061018761028536600461120f565b610d41565b8651600214801561029c575085516002145b6102e15760405162461bcd60e51b81526020600482015260116024820152701b195b99dd1a081b5a5cdb585d18da1959607a1b60448201526064015b60405180910390fd5b60035487516060916001600160a01b031690899060009061030457610304611231565b60200260200101516001600160a01b03161480610353575060035488516001600160a01b03909116908990600190811061034057610340611231565b60200260200101516001600160a01b0316145b156103c5576040805160028082526060820190925290816020015b606081526020019060019003908161036e579050509050604051806040016040528060048152602001630910874560e11b815250816001815181106103b5576103b5611231565b60200260200101819052506103f2565b60408051600180825281830190925290816020015b60608152602001906001900390816103da5790505090505b8760008151811061040557610405611231565b60200260200101518860018151811061042057610420611231565b60200260200101518787878b60008151811061043e5761043e611231565b60200260200101518c60018151811061045957610459611231565b60209081029190910101516040516001600160a01b039788166024820152958716604487015262ffffff9094166064860152600292830b6084860152910b60a484015260c483015260e48201526000610104820181905261012482015290841661014482015261016481018390526101840160408051601f198184030181529190526020810180516001600160e01b0316634418b22b60e11b1790528151829060009061050857610508611231565b6020908102919091010152600254604051631592ca1b60e31b81526001600160a01b039091169063ac9650d890349061054590859060040161126b565b60006040518083038185885af1158015610563573d6000803e3d6000fd5b50505050506040513d6000823e601f3d908101601f1916820160405261058c91908101906112e5565b505050505050505050565b60005b81518110156107585760035482516001600160a01b03909116908390839081106105c6576105c6611231565b60200260200101516001600160a01b0316146107505760008282815181106105f0576105f0611231565b60209081029190910101516040516370a0823160e01b81523060048201529091506000906001600160a01b038316906370a0823190602401602060405180830381865afa158015610645573d6000803e3d6000fd5b505050506040513d601f19601f8201168201806040525081019061066991906113ea565b905080156106e45760405163a9059cbb60e01b8152336004820152602481018290526001600160a01b0383169063a9059cbb906044016020604051808303816000875af11580156106be573d6000803e3d6000fd5b505050506040513d601f19601f820116820180604052508101906106e29190611403565b505b6040516370a0823160e01b81523060048201526001600160a01b038316906370a0823190602401602060405180830381865afa158015610728573d6000803e3d6000fd5b505050506040513d601f19601f8201168201806040525081019061074c91906113ea565b5050505b60010161059a565b5050565b610764610d7c565b61076e6000610da9565b565b6001546040516316b9007760e21b81526001600160a01b0390911690635ae401dc9034906107a69087908790879060040161144e565b60006040518083038185885af11580156107c4573d6000803e3d6000fd5b50505050506040513d6000823e601f3d908101601f191682016040526107ed91908101906112e5565b50505050565b6107fb610d7c565b60405163095ea7b360e01b81526001600160a01b0383811660048301526024820183905284169063095ea7b3906044016020604051808303816000875af115801561084a573d6000803e3d6000fd5b505050506040513d601f19601f820116820180604052508101906107ed9190611403565b471561076e57604051600090339047908381818185875af1925050503d80600081146108b6576040519150601f19603f3d011682016040523d82523d6000602084013e6108bb565b606091505b50509050806109035760405162461bcd60e51b81526020600482015260146024820152732330b4b632b2103a379039b2b7321022ba3432b960611b60448201526064016102d8565b50565b6003546001600160a01b038d8116911614610994576040516323b872dd60e01b8152336004820152306024820152604481018a90526001600160a01b038d16906323b872dd906064016020604051808303816000875af115801561096e573d6000803e3d6000fd5b505050506040513d601f19601f820116820180604052508101906109929190611403565b505b6003546001600160a01b03908116908d1603610a0a57604051637ced6d2760e01b81523090637ced6d27908a906109d39087908790879060040161144e565b6000604051808303818588803b1580156109ec57600080fd5b505af1158015610a00573d6000803e3d6000fd5b5050505050610a64565b604051637ced6d2760e01b81523090637ced6d2790610a319086908690869060040161144e565b600060405180830381600087803b158015610a4b57600080fd5b505af1158015610a5f573d6000803e3d6000fd5b505050505b6040805160028082526060820183526000926020830190803683375050604080516002808252606082018352939450600093909250906020830190803683370190505090508c82600081518110610abd57610abd611231565b60200260200101906001600160a01b031690816001600160a01b0316815250508b82600181518110610af157610af1611231565b60200260200101906001600160a01b031690816001600160a01b03168152505060005b6002811015610c275760035483516001600160a01b0390911690849083908110610b4057610b40611231565b60200260200101516001600160a01b031603610b7a5747828281518110610b6957610b69611231565b602002602001018181525050610c1f565b828181518110610b8c57610b8c611231565b60209081029190910101516040516370a0823160e01b81523060048201526001600160a01b03909116906370a0823190602401602060405180830381865afa158015610bdc573d6000803e3d6000fd5b505050506040513d601f19601f82011682018060405250810190610c0091906113ea565b828281518110610c1257610c12611231565b6020026020010181815250505b600101610b14565b506003546001600160a01b038e811691161480610c5157506003546001600160a01b038d81169116145b15610cc657604051631ddb444960e11b81523090633bb68892904790610c8790869086908f908f908f908f908f90600401611533565b6000604051808303818588803b158015610ca057600080fd5b505af1158015610cb4573d6000803e3d6000fd5b5050505050610cc161086e565b610d28565b604051631ddb444960e11b81523090633bb6889290610cf590859085908e908e908e908e908e90600401611533565b600060405180830381600087803b158015610d0f57600080fd5b505af1158015610d23573d6000803e3d6000fd5b505050505b610d3182610597565b5050505050505050505050505050565b610d49610d7c565b6001600160a01b038116610d7357604051631e4fbdf760e01b8152600060048201526024016102d8565b61090381610da9565b6000546001600160a01b0316331461076e5760405163118cdaa760e01b81523360048201526024016102d8565b600080546001600160a01b038381166001600160a01b0319831681178455604051919092169283917f8be0079c531659141344cd1fd0a4f28419497f9722a3daafe3b4186f6b6457e09190a35050565b634e487b7160e01b600052604160045260246000fd5b604051601f8201601f1916810167ffffffffffffffff81118282101715610e3857610e38610df9565b604052919050565b600067ffffffffffffffff821115610e5a57610e5a610df9565b5060051b60200190565b80356001600160a01b0381168114610e7b57600080fd5b919050565b600082601f830112610e9157600080fd5b81356020610ea6610ea183610e40565b610e0f565b8083825260208201915060208460051b870101935086841115610ec857600080fd5b602086015b84811015610eeb57610ede81610e64565b8352918301918301610ecd565b509695505050505050565b803562ffffff81168114610e7b57600080fd5b8035600281900b8114610e7b57600080fd5b600080600080600080600060e0888a031215610f3657600080fd5b873567ffffffffffffffff80821115610f4e57600080fd5b610f5a8b838c01610e80565b985060209150818a013581811115610f7157600080fd5b8a019050601f81018b13610f8457600080fd5b8035610f92610ea182610e40565b81815260059190911b8201830190838101908d831115610fb157600080fd5b928401925b82841015610fcf57833582529284019290840190610fb6565b809a505050505050610fe360408901610ef6565b9450610ff160608901610f09565b9350610fff60808901610f09565b925061100d60a08901610e64565b915060c0880135905092959891949750929550565b60006020828403121561103457600080fd5b813567ffffffffffffffff81111561104b57600080fd5b61105784828501610e80565b949350505050565b60008083601f84011261107157600080fd5b50813567ffffffffffffffff81111561108957600080fd5b6020830191508360208260051b85010111156110a457600080fd5b9250929050565b6000806000604084860312156110c057600080fd5b83359250602084013567ffffffffffffffff8111156110de57600080fd5b6110ea8682870161105f565b9497909650939450505050565b60008060006060848603121561110c57600080fd5b61111584610e64565b925061112360208501610e64565b9150604084013590509250925092565b6000806000806000806000806000806000806101608d8f03121561115657600080fd5b61115f8d610e64565b9b5061116d60208e01610e64565b9a5061117b60408e01610e64565b995060608d0135985060808d0135975061119760a08e01610ef6565b96506111a560c08e01610f09565b95506111b360e08e01610f09565b94506111c26101008e01610e64565b93506101208d0135925067ffffffffffffffff6101408e013511156111e657600080fd5b6111f78e6101408f01358f0161105f565b81935080925050509295989b509295989b509295989b565b60006020828403121561122157600080fd5b61122a82610e64565b9392505050565b634e487b7160e01b600052603260045260246000fd5b60005b8381101561126257818101518382015260200161124a565b50506000910152565b6000602080830181845280855180835260408601915060408160051b870101925083870160005b828110156112d857878503603f19018452815180518087526112b9818989018a8501611247565b601f01601f191695909501860194509285019290850190600101611292565b5092979650505050505050565b600060208083850312156112f857600080fd5b825167ffffffffffffffff8082111561131057600080fd5b8185019150601f86601f84011261132657600080fd5b8251611334610ea182610e40565b81815260059190911b8401850190858101908983111561135357600080fd5b8686015b838110156113dc5780518681111561136f5760008081fd5b8701603f81018c136113815760008081fd5b8881015160408882111561139757611397610df9565b6113a8828901601f19168c01610e0f565b8281528e828486010111156113bd5760008081fd5b6113cc838d8301848701611247565b8652505050918701918701611357565b509998505050505050505050565b6000602082840312156113fc57600080fd5b5051919050565b60006020828403121561141557600080fd5b8151801515811461122a57600080fd5b81835281816020850137506000828201602090810191909152601f909101601f19169091010190565b6000604082018583526020604060208501528185835260608501905060608660051b86010192508660005b878110156114e957868503605f190183528135368a9003601e1901811261149f57600080fd5b8901848101903567ffffffffffffffff8111156114bb57600080fd5b8036038213156114ca57600080fd5b6114d5878284611425565b965050509183019190830190600101611479565b509298975050505050505050565b60008151808452602080850194506020840160005b838110156115285781518752958201959082019060010161150c565b509495945050505050565b60e08082528851908201819052600090602090610100840190828c01845b828110156115765781516001600160a01b031684529284019290840190600101611551565b505050838103602085015261158b818b6114f7565b925050506115a0604083018862ffffff169052565b6115af606083018760020b9052565b6115be608083018660020b9052565b6001600160a01b039390931660a082015260c001529594505050505056fea264697066735822122069a977cd9ef26a6d1297056a28d60abff2a94518bfca1546590b4792311e7e9b64736f6c63430008170033","linkReferences":{}},"methodIdentifiers":{"WETH9()":"4aa4a4fc","approver(address,address,uint256)":"95e0cea3","mint(address[],uint256[],uint24,int24,int24,address,uint256)":"3bb68892","multiSwap(uint256,bytes[])":"7ced6d27","owner()":"8da5cb5b","positionManager()":"791b98bc","renounceOwnership()":"715018a6","transferOwnership(address)":"f2fde38b","vlsRouter()":"0eb41692","withdrawEth()":"a0ef91df","withdrawToken(address[])":"4b0879fe","zap(address,address,address,uint256,uint256,uint24,int24,int24,address,uint256,bytes[])":"e5c8a784"},"id":29}