{"abi":[{"type":"constructor","inputs":[{"name":"_routerAddress","type":"address","internalType":"address"},{"name":"_managerAddress","type":"address","internalType":"address"},{"name":"_WETH9Address","type":"address","internalType":"address"}],"stateMutability":"nonpayable"},{"type":"fallback","stateMutability":"nonpayable"},{"type":"receive","stateMutability":"payable"},{"type":"function","name":"WETH9","inputs":[],"outputs":[{"name":"","type":"address","internalType":"address"}],"stateMutability":"view"},{"type":"function","name":"Zap","inputs":[{"name":"fromToken","type":"address","internalType":"address"},{"name":"token0","type":"address","internalType":"address"},{"name":"token1","type":"address","internalType":"address"},{"name":"fullAmount","type":"uint256","internalType":"uint256"},{"name":"swapAmount","type":"uint256","internalType":"uint256"},{"name":"fee","type":"uint24","internalType":"uint24"},{"name":"tickLower","type":"int24","internalType":"int24"},{"name":"tickUpper","type":"int24","internalType":"int24"},{"name":"recipient","type":"address","internalType":"address"},{"name":"deadline","type":"uint256","internalType":"uint256"},{"name":"swapParams","type":"bytes[]","internalType":"bytes[]"}],"outputs":[],"stateMutability":"payable"},{"type":"function","name":"approver","inputs":[{"name":"_tokenAddress","type":"address","internalType":"address"},{"name":"_to","type":"address","internalType":"address"},{"name":"value","type":"uint256","internalType":"uint256"}],"outputs":[],"stateMutability":"nonpayable"},{"type":"function","name":"mint","inputs":[{"name":"token","type":"address[]","internalType":"address[]"},{"name":"amount","type":"uint256[]","internalType":"uint256[]"},{"name":"fee","type":"uint24","internalType":"uint24"},{"name":"tickLower","type":"int24","internalType":"int24"},{"name":"tickUpper","type":"int24","internalType":"int24"},{"name":"recipient","type":"address","internalType":"address"},{"name":"deadline","type":"uint256","internalType":"uint256"}],"outputs":[],"stateMutability":"payable"},{"type":"function","name":"multiSwap","inputs":[{"name":"_deadline","type":"uint256","internalType":"uint256"},{"name":"_data","type":"bytes[]","internalType":"bytes[]"}],"outputs":[],"stateMutability":"payable"},{"type":"function","name":"number","inputs":[],"outputs":[{"name":"","type":"uint256","internalType":"uint256"}],"stateMutability":"view"},{"type":"function","name":"owner","inputs":[],"outputs":[{"name":"","type":"address","internalType":"address"}],"stateMutability":"view"},{"type":"function","name":"positionManager","inputs":[],"outputs":[{"name":"","type":"address","internalType":"contract PositionManager"}],"stateMutability":"view"},{"type":"function","name":"renounceOwnership","inputs":[],"outputs":[],"stateMutability":"nonpayable"},{"type":"function","name":"transferOwnership","inputs":[{"name":"newOwner","type":"address","internalType":"address"}],"outputs":[],"stateMutability":"nonpayable"},{"type":"function","name":"vlsRouter","inputs":[],"outputs":[{"name":"","type":"address","internalType":"contract VLSRouter"}],"stateMutability":"view"},{"type":"function","name":"withdrawEth","inputs":[],"outputs":[],"stateMutability":"payable"},{"type":"function","name":"withdrawToken","inputs":[{"name":"_address","type":"address[]","internalType":"address[]"}],"outputs":[],"stateMutability":"nonpayable"},{"type":"event","name":"OwnershipTransferred","inputs":[{"name":"previousOwner","type":"address","indexed":true,"internalType":"address"},{"name":"newOwner","type":"address","indexed":true,"internalType":"address"}],"anonymous":false},{"type":"event","name":"fall","inputs":[{"name":"memo","type":"string","indexed":false,"internalType":"string"}],"anonymous":false},{"type":"event","name":"rcv","inputs":[],"anonymous":false},{"type":"error","name":"OwnableInvalidOwner","inputs":[{"name":"owner","type":"address","internalType":"address"}]},{"type":"error","name":"OwnableUnauthorizedAccount","inputs":[{"name":"account","type":"address","internalType":"address"}]}],"bytecode":{"object":"0x60806040523480156200001157600080fd5b506040516200183a3803806200183a833981016040819052620000349162000117565b33806200005b57604051631e4fbdf760e01b81526000600482015260240160405180910390fd5b6200006681620000aa565b50600280546001600160a01b039485166001600160a01b03199182161790915560038054938516938216939093179092556004805491909316911617905562000161565b600080546001600160a01b038381166001600160a01b0319831681178455604051919092169283917f8be0079c531659141344cd1fd0a4f28419497f9722a3daafe3b4186f6b6457e09190a35050565b80516001600160a01b03811681146200011257600080fd5b919050565b6000806000606084860312156200012d57600080fd5b6200013884620000fa565b92506200014860208501620000fa565b91506200015860408501620000fa565b90509250925092565b6116c980620001716000396000f3fe6080604052600436106100c65760003560e01c8063791b98bc1161007f5780638da5cb5b116100595780638da5cb5b1461026457806395e0cea314610282578063a0ef91df146102a2578063f2fde38b146102aa576100f6565b8063791b98bc1461020d5780637ced6d271461022d5780638381f58a14610240576100f6565b80630eb416921461015357806326b7a9f6146101905780633bb68892146101a55780634aa4a4fc146101b85780634b0879fe146101d8578063715018a6146101f8576100f6565b366100f6576040517f9cd091259ba119ccaac023fda59703ff96ccda39f3aae269ba8ac3d3cd52ce8f90600090a1005b34801561010257600080fd5b507fe569a4a28e270788b4a9f8377a411f93e1f85bafb7590d00ec2426393da084336040516101499060208082526004908201526319985b1b60e21b604082015260600190565b60405180910390a1005b34801561015f57600080fd5b50600254610173906001600160a01b031681565b6040516001600160a01b0390911681526020015b60405180910390f35b6101a361019e366004610f3d565b6102ca565b005b6101a36101b33660046110fa565b610705565b3480156101c457600080fd5b50600454610173906001600160a01b031681565b3480156101e457600080fd5b506101a36101f3366004611201565b610a89565b34801561020457600080fd5b506101a3610c4e565b34801561021957600080fd5b50600354610173906001600160a01b031681565b6101a361023b36600461123e565b610c62565b34801561024c57600080fd5b5061025660015481565b604051908152602001610187565b34801561027057600080fd5b506000546001600160a01b0316610173565b34801561028e57600080fd5b506101a361029d36600461128a565b610ce5565b6101a3610d60565b3480156102b657600080fd5b506101a36102c53660046112c6565b610df8565b6004546001600160a01b038d8116911614610358576040516323b872dd60e01b8152336004820152306024820152604481018a90526001600160a01b038d16906323b872dd906064016020604051808303816000875af1158015610332573d6000803e3d6000fd5b505050506040513d601f19601f8201168201806040525081019061035691906112e8565b505b6004546001600160a01b03908116908d16036103ce57604051637ced6d2760e01b81523090637ced6d27908a9061039790879087908790600401611333565b6000604051808303818588803b1580156103b057600080fd5b505af11580156103c4573d6000803e3d6000fd5b5050505050610428565b604051637ced6d2760e01b81523090637ced6d27906103f590869086908690600401611333565b600060405180830381600087803b15801561040f57600080fd5b505af1158015610423573d6000803e3d6000fd5b505050505b6040805160028082526060820183526000926020830190803683375050604080516002808252606082018352939450600093909250906020830190803683370190505090508c82600081518110610481576104816113dc565b60200260200101906001600160a01b031690816001600160a01b0316815250508b826001815181106104b5576104b56113dc565b60200260200101906001600160a01b031690816001600160a01b03168152505060005b60028110156105eb5760045483516001600160a01b0390911690849083908110610504576105046113dc565b60200260200101516001600160a01b03160361053e574782828151811061052d5761052d6113dc565b6020026020010181815250506105e3565b828181518110610550576105506113dc565b60209081029190910101516040516370a0823160e01b81523060048201526001600160a01b03909116906370a0823190602401602060405180830381865afa1580156105a0573d6000803e3d6000fd5b505050506040513d601f19601f820116820180604052508101906105c491906113f2565b8282815181106105d6576105d66113dc565b6020026020010181815250505b6001016104d8565b506004546001600160a01b038e81169116148061061557506004546001600160a01b038d81169116145b1561068257604051631ddb444960e11b81523090633bb6889290479061064b90869086908f908f908f908f908f90600401611447565b6000604051808303818588803b15801561066457600080fd5b505af1158015610678573d6000803e3d6000fd5b50505050506106e4565b604051631ddb444960e11b81523090633bb68892906106b190859085908e908e908e908e908e90600401611447565b600060405180830381600087803b1580156106cb57600080fd5b505af11580156106df573d6000803e3d6000fd5b505050505b6106ec610d60565b6106f582610a89565b5050505050505050505050505050565b86516002148015610717575085516002145b61075c5760405162461bcd60e51b81526020600482015260116024820152701b195b99dd1a081b5a5cdb585d18da1959607a1b60448201526064015b60405180910390fd5b60045487516060916001600160a01b031690899060009061077f5761077f6113dc565b60200260200101516001600160a01b031614806107ce575060045488516001600160a01b0390911690899060019081106107bb576107bb6113dc565b60200260200101516001600160a01b0316145b15610805576040805160028082526060820190925290816020015b60608152602001906001900390816107e9579050509050610832565b60408051600180825281830190925290816020015b606081526020019060019003908161081a5790505090505b87600081518110610845576108456113dc565b602002602001015188600181518110610860576108606113dc565b60200260200101518787878b60008151811061087e5761087e6113dc565b60200260200101518c600181518110610899576108996113dc565b60209081029190910101516040516001600160a01b039788166024820152958716604487015262ffffff9094166064860152600292830b6084860152910b60a484015260c483015260e48201526000610104820181905261012482015290841661014482015261016481018390526101840160408051601f198184030181529190526020810180516001600160e01b0316634418b22b60e11b17905281518290600090610948576109486113dc565b602090810291909101015260045488516001600160a01b03909116908990600090610975576109756113dc565b60200260200101516001600160a01b031614806109c4575060045488516001600160a01b0390911690899060019081106109b1576109b16113dc565b60200260200101516001600160a01b0316145b15610a0557604051806040016040528060048152602001630910874560e11b815250816001815181106109f9576109f96113dc565b60200260200101819052505b600354604051631592ca1b60e31b81526001600160a01b039091169063ac9650d8903490610a37908590600401611514565b60006040518083038185885af1158015610a55573d6000803e3d6000fd5b50505050506040513d6000823e601f3d908101601f19168201604052610a7e919081019061158e565b505050505050505050565b60005b8151811015610c4a5760045482516001600160a01b0390911690839083908110610ab857610ab86113dc565b60200260200101516001600160a01b031614610c42576000828281518110610ae257610ae26113dc565b60209081029190910101516040516370a0823160e01b81523060048201529091506000906001600160a01b038316906370a0823190602401602060405180830381865afa158015610b37573d6000803e3d6000fd5b505050506040513d601f19601f82011682018060405250810190610b5b91906113f2565b90508015610bd65760405163a9059cbb60e01b8152336004820152602481018290526001600160a01b0383169063a9059cbb906044016020604051808303816000875af1158015610bb0573d6000803e3d6000fd5b505050506040513d601f19601f82011682018060405250810190610bd491906112e8565b505b6040516370a0823160e01b81523060048201526001600160a01b038316906370a0823190602401602060405180830381865afa158015610c1a573d6000803e3d6000fd5b505050506040513d601f19601f82011682018060405250810190610c3e91906113f2565b5050505b600101610a8c565b5050565b610c56610e33565b610c606000610e60565b565b6002546040516316b9007760e21b81526001600160a01b0390911690635ae401dc903490610c9890879087908790600401611333565b60006040518083038185885af1158015610cb6573d6000803e3d6000fd5b50505050506040513d6000823e601f3d908101601f19168201604052610cdf919081019061158e565b50505050565b610ced610e33565b60405163095ea7b360e01b81526001600160a01b0383811660048301526024820183905284169063095ea7b3906044016020604051808303816000875af1158015610d3c573d6000803e3d6000fd5b505050506040513d601f19601f82011682018060405250810190610cdf91906112e8565b4715610c6057604051600090339047908381818185875af1925050503d8060008114610da8576040519150601f19603f3d011682016040523d82523d6000602084013e610dad565b606091505b5050905080610df55760405162461bcd60e51b81526020600482015260146024820152732330b4b632b2103a379039b2b7321022ba3432b960611b6044820152606401610753565b50565b610e00610e33565b6001600160a01b038116610e2a57604051631e4fbdf760e01b815260006004820152602401610753565b610df581610e60565b6000546001600160a01b03163314610c605760405163118cdaa760e01b8152336004820152602401610753565b600080546001600160a01b038381166001600160a01b0319831681178455604051919092169283917f8be0079c531659141344cd1fd0a4f28419497f9722a3daafe3b4186f6b6457e09190a35050565b80356001600160a01b0381168114610ec757600080fd5b919050565b803562ffffff81168114610ec757600080fd5b8035600281900b8114610ec757600080fd5b60008083601f840112610f0357600080fd5b50813567ffffffffffffffff811115610f1b57600080fd5b6020830191508360208260051b8501011115610f3657600080fd5b9250929050565b6000806000806000806000806000806000806101608d8f031215610f6057600080fd5b610f698d610eb0565b9b50610f7760208e01610eb0565b9a50610f8560408e01610eb0565b995060608d0135985060808d01359750610fa160a08e01610ecc565b9650610faf60c08e01610edf565b9550610fbd60e08e01610edf565b9450610fcc6101008e01610eb0565b93506101208d0135925067ffffffffffffffff6101408e01351115610ff057600080fd5b6110018e6101408f01358f01610ef1565b81935080925050509295989b509295989b509295989b565b634e487b7160e01b600052604160045260246000fd5b604051601f8201601f1916810167ffffffffffffffff8111828210171561105857611058611019565b604052919050565b600067ffffffffffffffff82111561107a5761107a611019565b5060051b60200190565b600082601f83011261109557600080fd5b813560206110aa6110a583611060565b61102f565b8083825260208201915060208460051b8701019350868411156110cc57600080fd5b602086015b848110156110ef576110e281610eb0565b83529183019183016110d1565b509695505050505050565b600080600080600080600060e0888a03121561111557600080fd5b873567ffffffffffffffff8082111561112d57600080fd5b6111398b838c01611084565b985060209150818a01358181111561115057600080fd5b8a019050601f81018b1361116357600080fd5b80356111716110a582611060565b81815260059190911b8201830190838101908d83111561119057600080fd5b928401925b828410156111ae57833582529284019290840190611195565b809a5050505050506111c260408901610ecc565b94506111d060608901610edf565b93506111de60808901610edf565b92506111ec60a08901610eb0565b915060c0880135905092959891949750929550565b60006020828403121561121357600080fd5b813567ffffffffffffffff81111561122a57600080fd5b61123684828501611084565b949350505050565b60008060006040848603121561125357600080fd5b83359250602084013567ffffffffffffffff81111561127157600080fd5b61127d86828701610ef1565b9497909650939450505050565b60008060006060848603121561129f57600080fd5b6112a884610eb0565b92506112b660208501610eb0565b9150604084013590509250925092565b6000602082840312156112d857600080fd5b6112e182610eb0565b9392505050565b6000602082840312156112fa57600080fd5b815180151581146112e157600080fd5b81835281816020850137506000828201602090810191909152601f909101601f19169091010190565b6000604082018583526020604060208501528185835260608501905060608660051b86010192508660005b878110156113ce57868503605f190183528135368a9003601e1901811261138457600080fd5b8901848101903567ffffffffffffffff8111156113a057600080fd5b8036038213156113af57600080fd5b6113ba87828461130a565b96505050918301919083019060010161135e565b509298975050505050505050565b634e487b7160e01b600052603260045260246000fd5b60006020828403121561140457600080fd5b5051919050565b60008151808452602080850194506020840160005b8381101561143c57815187529582019590820190600101611420565b509495945050505050565b60e08082528851908201819052600090602090610100840190828c01845b8281101561148a5781516001600160a01b031684529284019290840190600101611465565b505050838103602085015261149f818b61140b565b925050506114b4604083018862ffffff169052565b6114c3606083018760020b9052565b6114d2608083018660020b9052565b6001600160a01b039390931660a082015260c0015295945050505050565b60005b8381101561150b5781810151838201526020016114f3565b50506000910152565b6000602080830181845280855180835260408601915060408160051b870101925083870160005b8281101561158157878503603f1901845281518051808752611562818989018a85016114f0565b601f01601f19169590950186019450928501929085019060010161153b565b5092979650505050505050565b600060208083850312156115a157600080fd5b825167ffffffffffffffff808211156115b957600080fd5b8185019150601f86601f8401126115cf57600080fd5b82516115dd6110a582611060565b81815260059190911b840185019085810190898311156115fc57600080fd5b8686015b83811015611685578051868111156116185760008081fd5b8701603f81018c1361162a5760008081fd5b8881015160408882111561164057611640611019565b611651828901601f19168c0161102f565b8281528e828486010111156116665760008081fd5b611675838d83018487016114f0565b8652505050918701918701611600565b50999850505050505050505056fea2646970667358221220301d19beb6a91cf398e42973500c0676b552d15579e61199b6fdb54abe8067fc64736f6c63430008170033","linkReferences":{}},"methodIdentifiers":{"WETH9()":"4aa4a4fc","Zap(address,address,address,uint256,uint256,uint24,int24,int24,address,uint256,bytes[])":"26b7a9f6","approver(address,address,uint256)":"95e0cea3","mint(address[],uint256[],uint24,int24,int24,address,uint256)":"3bb68892","multiSwap(uint256,bytes[])":"7ced6d27","number()":"8381f58a","owner()":"8da5cb5b","positionManager()":"791b98bc","renounceOwnership()":"715018a6","transferOwnership(address)":"f2fde38b","vlsRouter()":"0eb41692","withdrawEth()":"a0ef91df","withdrawToken(address[])":"4b0879fe"},"id":29}